{
  "abi": [
    {
      "inputs": [
        {
          "internalType": "address",
          "name": "_tokenAddress",
          "type": "address"
        }
      ],
      "stateMutability": "nonpayable",
      "type": "constructor"
    },
    {
      "inputs": [
        {
          "internalType": "address",
          "name": "_recepient",
          "type": "address"
        },
        {
          "internalType": "uint256",
          "name": "_tokenAmount",
          "type": "uint256"
        }
      ],
      "name": "_swapTokensForEth",
      "outputs": [],
      "stateMutability": "nonpayable",
      "type": "function"
    },
    {
      "inputs": [
        {
          "internalType": "address",
          "name": "_user",
          "type": "address"
        }
      ],
      "name": "_transferInTokens",
      "outputs": [],
      "stateMutability": "nonpayable",
      "type": "function"
    },
    {
      "inputs": [],
      "name": "buy",
      "outputs": [],
      "stateMutability": "nonpayable",
      "type": "function"
    },
    {
      "inputs": [
        {
          "internalType": "address",
          "name": "",
          "type": "address"
        }
      ],
      "name": "isUser",
      "outputs": [
        {
          "internalType": "bool",
          "name": "",
          "type": "bool"
        }
      ],
      "stateMutability": "view",
      "type": "function"
    },
    {
      "inputs": [
        {
          "internalType": "address",
          "name": "",
          "type": "address"
        }
      ],
      "name": "recurringBuyAmount",
      "outputs": [
        {
          "internalType": "uint256",
          "name": "",
          "type": "uint256"
        }
      ],
      "stateMutability": "view",
      "type": "function"
    },
    {
      "inputs": [
        {
          "internalType": "uint256",
          "name": "_amount",
          "type": "uint256"
        }
      ],
      "name": "signUp",
      "outputs": [],
      "stateMutability": "nonpayable",
      "type": "function"
    },
    {
      "inputs": [],
      "name": "tokenAddress",
      "outputs": [
        {
          "internalType": "address",
          "name": "",
          "type": "address"
        }
      ],
      "stateMutability": "view",
      "type": "function"
    },
    {
      "inputs": [],
      "name": "universalRouter",
      "outputs": [
        {
          "internalType": "contract IUniversalRouter",
          "name": "",
          "type": "address"
        }
      ],
      "stateMutability": "view",
      "type": "function"
    },
    {
      "inputs": [
        {
          "internalType": "uint256",
          "name": "_amount",
          "type": "uint256"
        }
      ],
      "name": "updateRecurringAmount",
      "outputs": [],
      "stateMutability": "nonpayable",
      "type": "function"
    },
    {
      "inputs": [
        {
          "internalType": "uint256",
          "name": "",
          "type": "uint256"
        }
      ],
      "name": "users",
      "outputs": [
        {
          "internalType": "address",
          "name": "",
          "type": "address"
        }
      ],
      "stateMutability": "view",
      "type": "function"
    }
  ],
  "bytecode": {
    "object": "0x60806040523480156200001157600080fd5b5060405162000c3238038062000c328339810160408190526200003491620000c0565b600380546001600160a01b0319166001600160a01b038316179055604051606082901b6001600160601b0319166020820152607d60ea1b60348201527ffff9976782d46cc05630d1f6ebab18b2324d6b140000000000000000000000006037820152604b0160405160208183030381529060405260049081620000b8919062000197565b505062000263565b600060208284031215620000d357600080fd5b81516001600160a01b0381168114620000eb57600080fd5b9392505050565b634e487b7160e01b600052604160045260246000fd5b600181811c908216806200011d57607f821691505b6020821081036200013e57634e487b7160e01b600052602260045260246000fd5b50919050565b601f8211156200019257600081815260208120601f850160051c810160208610156200016d5750805b601f850160051c820191505b818110156200018e5782815560010162000179565b5050505b505050565b81516001600160401b03811115620001b357620001b3620000f2565b620001cb81620001c4845462000108565b8462000144565b602080601f831160018114620002035760008415620001ea5750858301515b600019600386901b1c1916600185901b1785556200018e565b600085815260208120601f198616915b82811015620002345788860151825594840194600190910190840162000213565b5085821015620002535787850151600019600388901b60f8161c191681555b5050505050600190811b01905550565b6109bf80620002736000396000f3fe608060405234801561001057600080fd5b506004361061009e5760003560e01c8063502719cf11610066578063502719cf14610156578063614abf0e14610169578063678a747d1461017c5780639d76ea58146101aa578063a6f2ae3a146101bd57600080fd5b806307132b79146100a35780631fc645c7146100c557806335a9e4df146100d8578063365b98b2146101105780634209fff114610123575b600080fd5b6100c36100b13660046106ce565b33600090815260026020526040902055565b005b6100c36100d33660046106ce565b6101c5565b6100f3733fc91a3afd70395cd496c647d5a6cc9d4b2b7fad81565b6040516001600160a01b0390911681526020015b60405180910390f35b6100f361011e3660046106ce565b61023f565b610146610131366004610703565b60016020526000908152604090205460ff1681565b6040519015158152602001610107565b6100c3610164366004610725565b610269565b6100c3610177366004610703565b61047b565b61019c61018a366004610703565b60026020526000908152604090205481565b604051908152602001610107565b6003546100f3906001600160a01b031681565b6100c361050c565b3360009081526001602052604090205460ff166100b15760008054600180820183557f290decd9548b62a8d60345a988386fc84ba6bc95484008f6362f93160ef3e56390910180546001600160a01b03191633908117909155825260208181526040808420805460ff191690931790925560029052902055565b6000818154811061024f57600080fd5b6000918252602090912001546001600160a01b0316905081565b60408051600280825260608201909252600091816020015b6060815260200190600190039081610281579050509050733fc91a3afd70395cd496c647d5a6cc9d4b2b7fad826000600460006040516020016102c895949392919061074f565b604051602081830303815290604052816000815181106102ea576102ea61082f565b60200260200101819052508260006040516020016103209291906001600160a01b0392909216825260ff16602082015260400190565b604051602081830303815290604052816001815181106103425761034261082f565b602090810291909101015260035460405163a9059cbb60e01b8152733fc91a3afd70395cd496c647d5a6cc9d4b2b7fad6004820152602481018490526001600160a01b039091169063a9059cbb906044016020604051808303816000875af11580156103b2573d6000803e3d6000fd5b505050506040513d601f19601f820116820180604052508101906103d69190610845565b5060405160006020820152600360fa1b6021820152733fc91a3afd70395cd496c647d5a6cc9d4b2b7fad90633593564c9060220160408051601f198184030181529190528361042642600f61087d565b6040518463ffffffff1660e01b8152600401610444939291906108dc565b600060405180830381600087803b15801561045e57600080fd5b505af1158015610472573d6000803e3d6000fd5b50505050505050565b6003546001600160a01b03828116600081815260026020526040908190205490516323b872dd60e01b8152600481019290925230602483015260448201529116906323b872dd906064016020604051808303816000875af11580156104e4573d6000803e3d6000fd5b505050506040513d601f19601f820116820180604052508101906105089190610845565b5050565b60005b60005481101561059257600080828154811061052d5761052d61082f565b6000918252602090912001546001600160a01b0316905061054d81610595565b1561057f5761055b8161047b565b6001600160a01b03811660009081526002602052604090205461057f908290610269565b508061058a81610957565b91505061050f565b50565b6001600160a01b03818116600081815260026020526040808220546003549151636eb1769f60e11b815260048101949094523060248501529193849391169063dd62ed3e90604401602060405180830381865afa1580156105fa573d6000803e3d6000fd5b505050506040513d601f19601f8201168201806040525081019061061e9190610970565b6001600160a01b038581166000818152600260205260408082205460035491516370a0823160e01b81526004810194909452959094101595509392909116906370a0823190602401602060405180830381865afa158015610683573d6000803e3d6000fd5b505050506040513d601f19601f820116820180604052508101906106a79190610970565b101590508180156106b55750805b156106c4575060019392505050565b5060009392505050565b6000602082840312156106e057600080fd5b5035919050565b80356001600160a01b03811681146106fe57600080fd5b919050565b60006020828403121561071557600080fd5b61071e826106e7565b9392505050565b6000806040838503121561073857600080fd5b610741836106e7565b946020939093013593505050565b6001600160a01b0386168152602080820186905260ff8516604083015260a060608301528354600091908290600181811c908281168061079057607f831692505b85831081036107ad57634e487b7160e01b85526022600452602485fd5b60a0880183905260c088018180156107cc57600181146107e25761080d565b60ff198616825284151560051b8201965061080d565b60008c81526020902060005b86811015610807578154848201529085019089016107ee565b83019750505b50505050861515608087015250909250610825915050565b9695505050505050565b634e487b7160e01b600052603260045260246000fd5b60006020828403121561085757600080fd5b8151801515811461071e57600080fd5b634e487b7160e01b600052601160045260246000fd5b8082018082111561089057610890610867565b92915050565b6000815180845260005b818110156108bc576020818501810151868301820152016108a0565b506000602082860101526020601f19601f83011685010191505092915050565b6060815260006108ef6060830186610896565b6020838203818501528186518084528284019150828160051b85010183890160005b8381101561093f57601f1987840301855261092d838351610896565b94860194925090850190600101610911565b50508095505050505050826040830152949350505050565b60006001820161096957610969610867565b5060010190565b60006020828403121561098257600080fd5b505191905056fea26469706673582212203af367718462bed0e599bf828afbb2de5c40bec8a3bde940763cb7d57ffede6664736f6c63430008140033",
    "linkReferences": {}
  },
  "methodIdentifiers": {
    "_swapTokensForEth(address,uint256)": "502719cf",
    "_transferInTokens(address)": "614abf0e",
    "buy()": "a6f2ae3a",
    "isUser(address)": "4209fff1",
    "recurringBuyAmount(address)": "678a747d",
    "signUp(uint256)": "1fc645c7",
    "tokenAddress()": "9d76ea58",
    "universalRouter()": "35a9e4df",
    "updateRecurringAmount(uint256)": "07132b79",
    "users(uint256)": "365b98b2"
  },
  "id": 32
}