{
  "abi": [
    {
      "inputs": [
        {
          "internalType": "address",
          "name": "_tokenAddress",
          "type": "address"
        },
        {
          "internalType": "address",
          "name": "_weth",
          "type": "address"
        }
      ],
      "stateMutability": "nonpayable",
      "type": "constructor"
    },
    {
      "inputs": [],
      "name": "buy",
      "outputs": [],
      "stateMutability": "nonpayable",
      "type": "function"
    },
    {
      "inputs": [
        {
          "internalType": "address",
          "name": "",
          "type": "address"
        }
      ],
      "name": "isUser",
      "outputs": [
        {
          "internalType": "bool",
          "name": "",
          "type": "bool"
        }
      ],
      "stateMutability": "view",
      "type": "function"
    },
    {
      "inputs": [
        {
          "internalType": "address",
          "name": "",
          "type": "address"
        }
      ],
      "name": "recurringBuyAmount",
      "outputs": [
        {
          "internalType": "uint256",
          "name": "",
          "type": "uint256"
        }
      ],
      "stateMutability": "view",
      "type": "function"
    },
    {
      "inputs": [
        {
          "internalType": "uint256",
          "name": "_amount",
          "type": "uint256"
        }
      ],
      "name": "signUp",
      "outputs": [],
      "stateMutability": "nonpayable",
      "type": "function"
    },
    {
      "inputs": [],
      "name": "tokenAddress",
      "outputs": [
        {
          "internalType": "address",
          "name": "",
          "type": "address"
        }
      ],
      "stateMutability": "view",
      "type": "function"
    },
    {
      "inputs": [
        {
          "internalType": "uint256",
          "name": "_amount",
          "type": "uint256"
        }
      ],
      "name": "updateRecurringAmount",
      "outputs": [],
      "stateMutability": "nonpayable",
      "type": "function"
    },
    {
      "inputs": [
        {
          "internalType": "uint256",
          "name": "",
          "type": "uint256"
        }
      ],
      "name": "users",
      "outputs": [
        {
          "internalType": "address",
          "name": "",
          "type": "address"
        }
      ],
      "stateMutability": "view",
      "type": "function"
    }
  ],
  "bytecode": {
    "object": "0x60a06040523480156200001157600080fd5b5060405162000bb538038062000bb58339810160408190526200003491620000ce565b600380546001600160a01b0319166001600160a01b03848116919091179091558116608052604051606083811b6001600160601b03199081166020840152607d60ea1b60348401529083901b166037820152604b0160405160208183030381529060405260049081620000a89190620001ab565b50505062000277565b80516001600160a01b0381168114620000c957600080fd5b919050565b60008060408385031215620000e257600080fd5b620000ed83620000b1565b9150620000fd60208401620000b1565b90509250929050565b634e487b7160e01b600052604160045260246000fd5b600181811c908216806200013157607f821691505b6020821081036200015257634e487b7160e01b600052602260045260246000fd5b50919050565b601f821115620001a657600081815260208120601f850160051c81016020861015620001815750805b601f850160051c820191505b81811015620001a2578281556001016200018d565b5050505b505050565b81516001600160401b03811115620001c757620001c762000106565b620001df81620001d884546200011c565b8462000158565b602080601f831160018114620002175760008415620001fe5750858301515b600019600386901b1c1916600185901b178555620001a2565b600085815260208120601f198616915b82811015620002485788860151825594840194600190910190840162000227565b5085821015620002675787850151600019600388901b60f8161c191681555b5050505050600190811b01905550565b60805161092562000290600039600050506109256000f3fe608060405234801561001057600080fd5b506004361061007d5760003560e01c80634209fff11161005b5780634209fff1146100e7578063678a747d1461011a5780639d76ea5814610148578063a6f2ae3a1461015b57600080fd5b806307132b79146100825780631fc645c7146100a4578063365b98b2146100b7575b600080fd5b6100a261009036600461066c565b33600090815260026020526040902055565b005b6100a26100b236600461066c565b610163565b6100ca6100c536600461066c565b6101dd565b6040516001600160a01b0390911681526020015b60405180910390f35b61010a6100f5366004610685565b60016020526000908152604090205460ff1681565b60405190151581526020016100de565b61013a610128366004610685565b60026020526000908152604090205481565b6040519081526020016100de565b6003546100ca906001600160a01b031681565b6100a2610207565b3360009081526001602052604090205460ff166100905760008054600180820183557f290decd9548b62a8d60345a988386fc84ba6bc95484008f6362f93160ef3e56390910180546001600160a01b03191633908117909155825260208181526040808420805460ff191690931790925560029052902055565b600081815481106101ed57600080fd5b6000918252602090912001546001600160a01b0316905081565b60005b60005481101561028d576000808281548110610228576102286106b5565b6000918252602090912001546001600160a01b0316905061024881610290565b1561027a57610256816103c9565b6001600160a01b03811660009081526002602052604090205461027a90829061045a565b5080610285816106e1565b91505061020a565b50565b6001600160a01b03818116600081815260026020526040808220546003549151636eb1769f60e11b815260048101949094523060248501529193849391169063dd62ed3e90604401602060405180830381865afa1580156102f5573d6000803e3d6000fd5b505050506040513d601f19601f8201168201806040525081019061031991906106fa565b6001600160a01b038581166000818152600260205260408082205460035491516370a0823160e01b81526004810194909452959094101595509392909116906370a0823190602401602060405180830381865afa15801561037e573d6000803e3d6000fd5b505050506040513d601f19601f820116820180604052508101906103a291906106fa565b101590508180156103b05750805b156103bf575060019392505050565b5060009392505050565b6003546001600160a01b03828116600081815260026020526040908190205490516323b872dd60e01b8152600481019290925230602483015260448201529116906323b872dd906064016020604051808303816000875af1158015610432573d6000803e3d6000fd5b505050506040513d601f19601f820116820180604052508101906104569190610713565b5050565b60408051600280825260608201909252600091816020015b6060815260200190600190039081610472579050509050733fc91a3afd70395cd496c647d5a6cc9d4b2b7fad826000600460006040516020016104b9959493929190610735565b604051602081830303815290604052816000815181106104db576104db6106b5565b60200260200101819052508260006040516020016105119291906001600160a01b0392909216825260ff16602082015260400190565b60405160208183030381529060405281600181518110610533576105336106b5565b602090810291909101015260035460405163a9059cbb60e01b8152733fc91a3afd70395cd496c647d5a6cc9d4b2b7fad6004820152602481018490526001600160a01b039091169063a9059cbb906044016020604051808303816000875af11580156105a3573d6000803e3d6000fd5b505050506040513d601f19601f820116820180604052508101906105c79190610713565b5060405160006020820152600360fa1b6021820152733fc91a3afd70395cd496c647d5a6cc9d4b2b7fad90633593564c9060220160408051601f198184030181529190528361061742600f610815565b6040518463ffffffff1660e01b815260040161063593929190610874565b600060405180830381600087803b15801561064f57600080fd5b505af1158015610663573d6000803e3d6000fd5b50505050505050565b60006020828403121561067e57600080fd5b5035919050565b60006020828403121561069757600080fd5b81356001600160a01b03811681146106ae57600080fd5b9392505050565b634e487b7160e01b600052603260045260246000fd5b634e487b7160e01b600052601160045260246000fd5b6000600182016106f3576106f36106cb565b5060010190565b60006020828403121561070c57600080fd5b5051919050565b60006020828403121561072557600080fd5b815180151581146106ae57600080fd5b6001600160a01b0386168152602080820186905260ff8516604083015260a060608301528354600091908290600181811c908281168061077657607f831692505b858310810361079357634e487b7160e01b85526022600452602485fd5b60a0880183905260c088018180156107b257600181146107c8576107f3565b60ff198616825284151560051b820196506107f3565b60008c81526020902060005b868110156107ed578154848201529085019089016107d4565b83019750505b5050505086151560808701525090925061080b915050565b9695505050505050565b80820180821115610828576108286106cb565b92915050565b6000815180845260005b8181101561085457602081850181015186830182015201610838565b506000602082860101526020601f19601f83011685010191505092915050565b606081526000610887606083018661082e565b6020838203818501528186518084528284019150828160051b85010183890160005b838110156108d757601f198784030185526108c583835161082e565b948601949250908501906001016108a9565b5050809550505050505082604083015294935050505056fea2646970667358221220175b9297c325ad1c4dad2ed8631590431a393896de6ab300d0c4b7246e24e7ad64736f6c63430008140033",
    "linkReferences": {}
  },
  "methodIdentifiers": {
    "buy()": "a6f2ae3a",
    "isUser(address)": "4209fff1",
    "recurringBuyAmount(address)": "678a747d",
    "signUp(uint256)": "1fc645c7",
    "tokenAddress()": "9d76ea58",
    "updateRecurringAmount(uint256)": "07132b79",
    "users(uint256)": "365b98b2"
  },
  "id": 32
}